:100000000C9424010C9443010C948B010C949501E5
:100010000C9441010C9442020C9441010C94410156
:100020000C9441010C9441010C9441010C94410148
:100030000C9441010C9441010C94B6010C944101C3
:100040000C9441010C9441010C94FC070C94410167
:100050000C9441010C9441010C9441010C94410118
:100060000C9441010C944101000000000000005F6D
:1000700000000007000700147F147F14242A7F2A41
:10008000122313086462364955225000050300000C
:10009000001C2241000041221C0014083E081408E4
:1000A000083E0808005030000008080808080060F2
:1000B00060000020100804023E5149453E00427F86
:1000C000400042615149462141454B311814127F8D
:1000D0001027454545393C4A494930017109050316
:1000E0003649494936064949291E0036360000007E
:1000F0005636000008142241001414141414004150
:100100002214080201510906324979413E7E11113B
:10011000117E7F494949363E414141227F4141227A
:100120001C7F494949417F090909013E4149497AF2
:100130007F0808087F00417F41002040413F017F48
:10014000081422417F404040407F020C027F7F0420
:1001500008107F3E4141413E7F090909063E415159
:10016000215E7F09192946464949493101017F012C
:10017000013F4040403F1F2040201F3F4038403F4C
:100180006314081463070870080761514945430068
:100190007F41410002040810200041417F00040219
:1001A0000102044040404040000102040020545439
:1001B00054787F48444438384444442038444448C0
:1001C0007F3854545418087E0901020C5252523E92
:1001D0007F0804047800447D40002040443D007FB7
:1001E0001028440000417F40007C041804787C08FB
:1001F00004047838444444387C1414140808141453
:10020000187C7C080404084854545420043F44409B
:10021000203C4040207C1C2040201C3C4030403C86
:1002200044281028440C5050503C4464544C440022
:100230000836410000007F00000041360800100829
:10024000081008000000000011241FBECFEFD8E006
:10025000DEBFCDBF11E0A0E0B1E0E8EFFBE102C0FE
:1002600005900D92A636B107D9F723E0A6E6B1E0D6
:1002700001C01D92A937B207E1F70E9488030C94D0
:10028000FA0D0C9400001F920F920FB60F921124DA
:100290002F933F938F939F93EF93FF9380910C0144
:1002A0008E3170F520916C0130916D01283031054F
:1002B00038F590917401923041F09330D9F091303B
:1002C000F9F48F5F80930C011BC0E8E0F1E08581B9
:1002D0008853858320916E0130916F01265F3F4FD7
:1002E00030936F0120936E0190E090938B00809388
:1002F0008A0006C02F5F3F4F30936D0120936C0141
:10030000FF91EF919F918F913F912F910F900FBE91
:100310000F901F9018951F920F920FB60F921124F5
:100320000F900FBE0F901F9018951F920F920FB64F
:100330000F9211248F939F9380916B01882351F02A
:1003400090917401933020F49F5F9093740102C0E8
:100350001092740191E0811190E090936B019F9154
:100360008F910F900FBE0F901F9018951F920F92B4
:100370000FB60F921124CF92DF92EF92FF922F933C
:100380003F934F935F936F937F938F939F93AF931D
:10039000BF93EF93FF938091700190917101A091B1
:1003A0007201B09173010196A11DB11D809370017E
:1003B00090937101A0937201B09373019BB181E09E
:1003C00089278BB9C0907001D0907101E0907201C3
:1003D000F0907301C701B60128EC30E040E050E036
:1003E0000E948B0A672B682B692B19F481E080939C
:1003F000780160910C0170E086EA9EE00E94770A25
:100400009B01770F440B550BC701B6010E948B0A65
:10041000672B682B692B19F481E080937701C70162
:10042000B60126E930E040E050E00E948B0A672BDD
:10043000682B692B19F481E080937601C701B6011E
:1004400028E833E140E050E00E948B0A672B682BDC
:10045000692B19F081E080937501FF91EF91BF91B5
:10046000AF919F918F917F916F915F914F913F914C
:100470002F91FF90EF90DF90CF900F900FBE0F90D5
:100480001F9018951F920F920FB60F921124CF92C2
:10049000DF92EF92FF922F933F934F935F936F936F
:1004A0007F938F939F93AF93BF93EF93FF93C090EE
:1004B0007001D0907101E0907201F0907301809111
:1004C000670190916801A0916901B0916A01A7014B
:1004D0009601281B390B4A0B5B0B220F331F441F5D
:1004E000551F60E777E180E090E00E948B0A30932F
:1004F000090120930801C0926701D0926801E0923F
:100500006901F0926A01FF91EF91BF91AF919F91C4
:100510008F917F916F915F914F913F912F91FF90BC
:10052000EF90DF90CF900F900FBE0F901F90189517
:100530000F931F932091040130910501309389009E
:1005400020938800FC012081222309F47AC0409185
:100550000001509101016091020170910301452B4E
:10056000462B472B81F14091040150910501609188
:10057000060170910701403DF7E05F0761057105D5
:10058000A9F4109200011092010110920201109240
:10059000030140ED57E060E070E0409304015093A8
:1005A0000501609306017093070149C04A5F510934
:1005B000610971094093040150930501609306019C
:1005C000709307013CC020916C0130916D016AEF7E
:1005D000629FA001639F500D11244053584F60E06B
:1005E00070E0009104011091050120910601309105
:1005F00007014017510762077307A9F401E010E0F3
:1006000020E030E0009300011093010120930201EB
:100610003093030140930401509305016093060158
:10062000709307010CC006501F4F2F4F3F4F009390
:100630000401109305012093060130930701FC018A
:1006400010821F910F910895CF93DF93FC012081B9
:10065000222309F45AC0EC0180916601882319F025
:100660008130E9F032C0609178007091790080E0CB
:1006700090E00E9470092AE037ED43EA51E40E94BD
:10068000CF0820E030E040E251E40E9463080E947D
:10069000410960930A0181E480937C001BC0609152
:1006A00078007091790080E090E00E9470092FE658
:1006B00032E143E051E40E94CF080E944109609377
:1006C0000B0180E480937C0005C0E8E0F1E0128239
:1006D0008FEF838380916601811104C08F5F8093C7
:1006E000660102C01092660180910A018252883030
:1006F00020F480910B018C3320F48BB180688BB98E
:1007000003C08BB18F778BB91882DF91CF91089599
:100710008FEB84B990E495B98CEF87B980E88AB9FA
:100720008EEF8BB98AE08093690083E08DBB25E072
:100730002093680020E220936D0090936B0022E0EC
:1007400024BD85BD39EF37BD20936E002FE33CE912
:10075000309387002093860022EA209380002AE1CC
:100760002093810020ED37E03093890020938800AA
:1007700030938B0020938A0090937C0097EE9093A7
:100780007A0010927B0080937E0078940E943A0653
:1007900087E690E00E948C0786E791E00E942403A0
:1007A00087E791E00E949802C8E0D1E06A8170E09A
:1007B00080E090E00E9470098B019C014881598182
:1007C00080907401A0906C01C0906E01EB806C81F0
:1007D00088E791E00E94ED03DFCF4F925F926F9226
:1007E0007F928F929F92AF92BF92CF92DF92EF92C1
:1007F000FF920F931F93CF93DF93CDB7DEB765972B
:100800000FB6F894DEBF0FBECDBFFC017081772319
:1008100009F4E2C1B82C28013901D52EF42E062F97
:100820004C010E94950660E080E00E946E07F1E0B6
:10083000BF1609F496C0BF1648F082E0B81609F456
:10084000F8C093E0B91609F45CC1C2C1DF92FF920F
:1008500006E111E01F930F936E01E2E1CE0ED11C71
:10086000DF92CF920E94100B20E030E040E251E492
:10087000C301B2010E94FE090E9441097F936F9358
:100880001F930F933E01FAE06F0E711C7F926F92DF
:100890000E94100B8D858E878C858D878EE28C87CC
:1008A0001F92EF921F930F938E01095F1F4F1F93AB
:1008B0000F930E94100B0E94950660E080E00E945A
:1008C0006E0761E089E191E00E945D076AE080E0E7
:1008D0000E946E0761E0C6010E945D076AE08BE23C
:1008E0000E946E0761E087E291E00E945D0764E18B
:1008F00080E00E946E0761E0C8010E945D0764E12C
:100900008BE20E946E0761E08BE291E00E945D073E
:100910006EE180E00E946E0761E0C3010E945D0706
:100920006EE18BE20E946E0761E081E391E00E943C
:100930005D0768E280E00E946E0761E08EE091E072
:100940000E945D0768E28BE20E946E0761E083E32C
:1009500091E00E945D070FB6F894DEBF0FBECDBFD9
:1009600037C10E9495061F920F9306E111E01F9375
:100970000F937E019FE0E90EF11CFF92EF920E941F
:10098000100B1F92CF921F930F93FE0131966F01B0
:10099000FF93EF930E94100B1F92AF921F930F9340
:1009A0008E010C5F1F4F1F930F930E94100B60E08E
:1009B00080E00E946E0761E088E391E00E945D079D
:1009C0006FE080E00E946E0761E0C7010E945D0752
:1009D0006FE089E10E946E0761E083E491E00E948C
:1009E0005D0769E180E00E946E0761E0C6010E9438
:1009F0005D0769E189E10E946E0761E08FE491E0A3
:100A00000E945D0763E280E00E946E0761E0C8011A
:100A10000E945D0763E289E10E946E0761E085E55F
:100A200091E00E945D070FB6F894DEBF0FBECDBF08
:100A3000CFC00E9495061F920F9306E111E01F930D
:100A40000F937E019FE0E90EF11CFF92EF920E944E
:100A5000100B1F92CF921F930F93FE0131966F01DF
:100A6000FF93EF930E94100B1F92AF921F930F936F
:100A70008E010C5F1F4F1F930F930E94100B60E0BD
:100A800080E00E946E0761E088E391E00E945D07CC
:100A90006FE080E00E946E0761E0C7010E945D0781
:100AA0006FE089E10E946E0761E084E491E00E94BA
:100AB0005D0769E180E00E946E0761E0C6010E9467
:100AC0005D0769E189E10E946E0761E08EE491E0D3
:100AD0000E945D0763E280E00E946E0761E0C8014A
:100AE0000E945D0763E289E10E946E0761E085E58F
:100AF00091E00E945D070FB6F894DEBF0FBECDBF38
:100B000067C00E9495061F920F9306E111E01F93A4
:100B10000F937E019FE0E90EF11CFF92EF920E947D
:100B2000100B1F92CF921F930F93FE0131966F010E
:100B3000FF93EF930E94100B1F92AF921F930F939E
:100B40008E010C5F1F4F1F930F930E94100B60E0EC
:100B500080E00E946E0761E088E391E00E945D07FB
:100B60006FE080E00E946E0761E0C7010E945D07B0
:100B70006FE089E10E946E0761E084E491E00E94E9
:100B80005D0769E180E00E946E0761E0C6010E9496
:100B90005D0769E189E10E946E0761E08FE491E001
:100BA0000E945D0763E280E00E946E0761E0C80179
:100BB0000E945D0763E289E10E946E0761E084E5BF
:100BC00091E00E945D070FB6F894DEBF0FBECDBF67
:100BD0000E947307F401108265960FB6F894DEBF89
:100BE0000FBECDBFDF91CF911F910F91FF90EF907E
:100BF000DF90CF90BF90AF909F908F907F906F903D
:100C00005F904F90089598B19F7B98B9662329F023
:100C100098B1986098B990E01FC098B1977F98B943
:100C2000FACF47E050E0491B5109282F30E002C0BD
:100C3000359527954A95E2F720FF04C028B1206139
:100C400028B903C028B12F7E28B928B1206228B95D
:100C500028B12F7D28B99F5F983018F388B1806440
:100C600088B9089560E00E940306089561E00E943B
:100C700003060895CF93DF9387B1806487B987B166
:100C8000846087B987B1886087B987B1806187B987
:100C900087B1806287B988B1846088B988B180647F
:100CA00088B98FE39CE90197F1F700C0000088B193
:100CB0008B7F88B99FEF2AE683E0915020408040E7
:100CC000E1F700C0000088B1846088B988B18F7BEB
:100CD00088B981E20E94320683E10E94320686E0F2
:100CE0000E94320682EC0E94320680E20E943206A6
:100CF00089E00E94320680E80E94320680E40E9469
:100D00003206C0E0D0E004C080E00E9436062196A2
:100D1000C83F91E0D907C0F388E00E9432068CE01A
:100D20000E943206DF91CF91089580E80E9432063A
:100D300080E40E943206109271031092720380E0E8
:100D400090E005C0FC01E758FE4F10820196883FF5
:100D500021E09207B8F30895262F2695269526952B
:100D600090E034E5239F800D911D1124442379F0F8
:100D7000677021E030E002C0220F331F6A95E2F76E
:100D8000FC01E758FE4F8081282B2083089567706F
:100D900021E030E002C0220F331F6A95E2F7FC0128
:100DA000E758FE4F20958081282320830895EF92F5
:100DB000FF920F931F93CF93DF93E82EF62E00E060
:100DC00045C02E2D30E020523109802F6F2D0E941A
:100DD0006B0AF901EE0FFF1FEE0FFF1FE20FF31F6B
:100DE000E80FF11DE859FF4FE491812F0E946B0A33
:100DF000F0E002C0F595E7958A95E2F7E0FF0AC0BA
:100E00006091720380917103610F41E0800F0E9435
:100E1000AC0609C06091720380917103610F40E0DC
:100E2000800F0E94AC061F5F01C010E0212F30E050
:100E3000CE01880F991F880F991F880F991F8C1B4F
:100E40009D0B281739070CF4BCCF0F5F202F30E023
:100E5000CF2DD0E0CE01880F991F880F991F8C0FDE
:100E60009D1F281739070CF3E1E7F3E08F2D880F5A
:100E7000880F8F0D9081890F8F5F8083843570F08C
:100E800010927103E2E7F3E08F2D880F880F880F2F
:100E9000982F9F198081890F8F5F808380917203C3
:100EA000803320F01092710310927203DF91CF9182
:100EB0001F910F91FF90EF9008951F93CF93DF93B1
:100EC000EC01162F04C02196612F0E94D70688815D
:100ED0008111F9CFDF91CF911F9108958093710314
:100EE000609372030895CF93DF9380E80E943206E7
:100EF00080E40E943206C0E0D0E007C0FE01E7585F
:100F0000FE4F80810E9436062196C83F81E0D807B7
:100F1000A8F3DF91CF9108959093C5008093C4000A
:100F200088E98093C10086E08093C20087B1826027
:100F300087B987B18E7F87B90895EF92FF920F939B
:100F40001F93CF93DF93CDB7DEB762970FB6F894B8
:100F5000DEBF0FBECDBF8B017A010E94FE0A9A8BC5
:100F6000898B6DE571E0CE0141960E94E60ABC01D5
:100F7000CE0101960E94DF0A6DE571E0CE01419637
:100F80000E94E60ABC01CE0109960E94DF0ACE014A
:100F900001960E94C10AF80191838083CE010996CF
:100FA0000E94C10A9C01F70191838083F80140816E
:100FB000518181E0483E534008F080E0932F9095A6
:100FC000991F9927991F41E0283E33400CF040E0DB
:100FD000892321F0442311F081E001C080E0629672
:100FE0000FB6F894DEBF0FBECDBFDF91CF911F913A
:100FF0000F91FF90EF9008951F920F920FB60F92EE
:1010000011242F933F934F935F936F937F938F930D
:101010009F93AF93BF93EF93FF938091C6008A3362
:1010200041F08B3311F581E08093740310927303C8
:1010300038C010927403E0917303F0E0E25FFE4F5A
:10104000108247E753E065E773E08EE091E00E948D
:101050009D07811126C086E0EFE5F1E0AEE0B1E04A
:1010600001900D928A95E1F71CC090917403992329
:10107000C1F0E0917303E73048F491E09E0F909344
:101080007303F0E0E25FFE4F80830BC010927403A5
:1010900086E0EFE5F1E0AEE0B1E001900D928A95D7
:1010A000E1F7FF91EF91BF91AF919F918F917F9168
:1010B0006F915F914F913F912F910F900FBE0F90C5
:1010C0001F9018955058BB27AA270E947A080C94A5
:1010D000C4090E94B60938F00E94BD0920F039F415
:1010E0009F3F19F426F40C94B3090EF4E095E7FB46
:1010F0000C94AD09E92F0E94D50958F3BA1762077D
:1011000073078407950720F079F4A6F50C94F70986
:101110000EF4E0950B2EBA2FA02D0B01B901900112
:101120000C01CA01A0011124FF27591B99F0593F56
:1011300050F4503E68F11A16F040A22F232F342F9E
:101140004427585FF3CF469537952795A795F040EC
:101150005395C9F77EF41F16BA0B620B730B840B01
:10116000BAF09150A1F0FF0FBB1F661F771F881FB9
:10117000C2F70EC0BA0F621F731F841F48F4879511
:1011800077956795B795F7959E3F08F0B0CF939503
:10119000880F08F09927EE0F9795879508950E947C
:1011A000E3080C94C4090E94BD0958F00E94B609D6
:1011B00040F029F45F3F29F00C94AD0951110C94D3
:1011C000F8090C94B3090E94D50968F39923B1F387
:1011D000552391F3951B550BBB27AA27621773075D
:1011E000840738F09F5F5F4F220F331F441FAA1FF1
:1011F000A9F335D00E2E3AF0E0E832D091505040AD
:10120000E695001CCAF72BD0FE2F29D0660F771F5A
:10121000881FBB1F261737074807AB07B0E809F040
:10122000BB0B802DBF01FF2793585F4F3AF09E3FC5
:10123000510578F00C94AD090C94F8095F3FE4F384
:10124000983ED4F3869577956795B795F7959F5F08
:10125000C9F7880F911D9695879597F90895E1E054
:10126000660F771F881FBB1F621773078407BA07B3
:1012700020F0621B730B840BBA0BEE1F88F7E0950E
:1012800008950E94DD0988F09F5798F0B92F99279B
:10129000B751B0F0E1F0660F771F881F991F1AF061
:1012A000BA95C9F714C0B13091F00E94F709B1E0C6
:1012B00008950C94F709672F782F8827B85F39F0C5
:1012C000B93FCCF3869577956795B395D9F73EF4FA
:1012D00090958095709561957F4F8F4F9F4F0895A2
:1012E000E89409C097FB3EF49095809570956195C0
:1012F0007F4F8F4F9F4F9923A9F0F92F96E9BB2776
:101300009395F695879577956795B795F111F8CFF1
:10131000FAF4BB0F11F460FF1BC06F5F7F4F8F4F5C
:101320009F4F16C0882311F096E911C0772321F052
:101330009EE8872F762F05C0662371F096E8862FEA
:1013400070E060E02AF09A95660F771F881FDAF741
:10135000880F9695879597F9089597F99F6780E884
:1013600070E060E008959FEF80EC089500240A94F7
:101370001616170618060906089500240A94121670
:101380001306140605060895092E0394000C11F4A3
:10139000882352F0BB0F40F4BF2B11F460FF04C050
:1013A0006F5F7F4F8F4F9F4F089557FD9058440FA9
:1013B000551F59F05F3F71F04795880F97FB991FB4
:1013C00061F09F3F79F08795089512161306140671
:1013D000551FF2CF4695F1DF08C0161617061806FE
:1013E000991FF1CF86957105610508940895E894D9
:1013F000BB2766277727CB0197F908950E94110A2A
:101400000C94C4090E94B60938F00E94BD0920F06E
:10141000952311F00C94AD090C94B30911240C948C
:10142000F8090E94D50970F3959FC1F3950F50E01C
:10143000551F629FF001729FBB27F00DB11D639F86
:10144000AA27F00DB11DAA1F649F6627B00DA11D2C
:10145000661F829F2227B00DA11D621F739FB00DD2
:10146000A11D621F839FA00D611D221F749F332742
:10147000A00D611D231F849F600D211D822F762FDB
:101480006A2F11249F5750409AF0F1F088234AF0B8
:10149000EE0FFF1FBB1F661F771F881F9150504024
:1014A000A9F79E3F510580F00C94AD090C94F80902
:1014B0005F3FE4F3983ED4F3869577956795B795AB
:1014C000F795E7959F5FC1F7FE2B880F911D9695C5
:1014D000879597F90895991B79E004C0991F96178D
:1014E00008F0961B881F7A95C9F78095089597FB99
:1014F000072E16F4009407D077FD09D00E94AD0A9C
:1015000007FC05D03EF4909581959F4F0895709506
:1015100061957F4F0895A1E21A2EAA1BBB1BFD0106
:101520000DC0AA1FBB1FEE1FFF1FA217B307E407C2
:10153000F50720F0A21BB30BE40BF50B661F771F1A
:10154000881F991F1A9469F76095709580959095FA
:101550009B01AC01BD01CF010895AA1BBB1B51E14A
:1015600007C0AA1FBB1FA617B70710F0A61BB70B13
:10157000881F991F5A95A9F780959095BC01CD01B8
:101580000895FC0188279927E89421912032E9F3F6
:10159000293010F02E30C8F32B3241F02D3239F4BF
:1015A000689404C00E94080B820F911D2191205362
:1015B0002A30C0F31EF4909581959F4F0895FB014A
:1015C000DC0101900D920020E1F70895FC01A0815B
:1015D000B181AD01109681F03D91FB0101900316A0
:1015E0000110E1F7C9F7002011F4D00102C01E92EA
:1015F0001196FC01A083B183CA010895DC016C91AE
:1016000061566A3108F0605E6F5B6D93C1F70895B3
:101610007AE0979F902D879F802D910D112408953A
:10162000AEE0B0E0E6E1FBE00C94D10D0D891E893F
:1016300086E08C831A8309838FEF9FE79E838D83D7
:10164000AE01475E5F4F6F89788DCE0101960E9493
:10165000320BEF81F885E00FF11F10822E96E4E047
:101660000C94ED0DABE0B0E0E8E3FBE00C94C30DAF
:101670006C017B018A01FC0117821682838181FF44
:10168000CCC1CE0101963C01F6019381F70193FD97
:10169000859193FF81917F01882309F4BAC1853236
:1016A00039F493FD859193FF81917F01853229F46F
:1016B000B60190E00E94290DE7CF912C212C312C0E
:1016C000FFE1F315D8F08B3279F038F4803279F0FD
:1016D0008332A1F4232D20611DC08D3261F080334F
:1016E00069F4232D216016C0832D8260382EE32DEE
:1016F000E4603E2E2AC0F32DF8601DC037FC2DC0DB
:1017000020ED280F2A3040F08E32B9F436FC81C12A
:10171000232D2064322E19C036FE06C08AE0989E22
:10172000200D1124922E11C0EAE02E9E200D1124CE
:10173000222EF32DF0623F2E08C08C3621F4832D2B
:101740008068382E02C0883641F4F70193FD8591F8
:1017500093FF81917F018111B3CF982F9F7D955485
:10176000933028F40C5F1F4F9FE399830DC083369D
:1017700031F0833771F0833509F059C021C0F80189
:10178000808189830E5F1F4F88248394912C53019D
:1017900013C02801F2E04F0E511CF801A080B18067
:1017A00036FE03C0692D70E002C06FEF7FEFC50108
:1017B0000E941E0D4C018201F32DFF773F2E16C0B3
:1017C000280122E0420E511CF801A080B18036FEB3
:1017D00003C0692D70E002C06FEF7FEFC5010E946A
:1017E000130D4C01F32DF0683F2E820133FC1BC01A
:1017F000822D90E088169906B0F4B60180E290E060
:101800000E94290D2A94F4CFF50137FC859137FE0B
:1018100081915F01B60190E00E94290D21102A9468
:1018200021E0821A91088114910471F7E8C084368E
:1018300011F0893641F5F80137FE07C060817181EA
:10184000828193810C5F1F4F08C060817181072ED8
:10185000000C880B990B0E5F1F4FF32DFF763F2E68
:1018600097FF09C090958095709561957F4F8F4F38
:101870009F4FF0683F2E2AE030E0A3010E94650DE3
:10188000882E861845C0853731F4232D2F7EB22E41
:101890002AE030E025C0932D997FB92E8F36C1F014
:1018A00018F4883579F0B5C0803719F0883721F001
:1018B000B0C0E92FE061BE2EB4FE0DC0FB2DF46078
:1018C000BF2E09C034FE0AC0292F2660B22E06C0E2
:1018D00028E030E005C020E130E002C020E132E045
:1018E000F801B7FE07C060817181828193810C5F2E
:1018F0001F4F06C06081718180E090E00E5F1F4F36
:10190000A3010E94650D882E8618FB2DFF773F2EC0
:1019100036FE0DC0232D2E7FA22E891458F434FEDE
:101920000BC032FC09C0832D8E7EA82E05C0B82CBA
:10193000A32C03C0B82C01C0B92CA4FE0FC0FE011B
:10194000E80DF11D8081803321F49A2D997EA92E16
:1019500009C0A2FE06C0B394B39404C08A2D867851
:1019600009F0B394A3FC11C0A0FE06C0B21488F421
:10197000280C922C9B180EC0B21460F4B60180E2C1
:1019800090E00E94290DB394F7CFB21418F42B18ED
:1019900002C0982C212CA4FE10C0B60180E390E078
:1019A0000E94290DA2FE17C0A1FC03C088E790E0A9
:1019B00002C088E590E0B6010CC08A2D867859F007
:1019C000A1FE02C08BE201C080E2A7FC8DE2B6015D
:1019D00090E00E94290D891438F4B60180E390E06C
:1019E0000E94290D9A94F7CF8A94F301E80DF11D16
:1019F0008081B60190E00E94290D8110F5CF222050
:101A000009F442CEB60180E290E00E94290D2A94AA
:101A1000F6CFF6018681978102C08FEF9FEF2B965C
:101A2000E2E10C94DF0DFC01059061507040011063
:101A3000D8F7809590958E0F9F1F0895FC016150F7
:101A4000704001900110D8F7809590958E0F9F1FE0
:101A500008950F931F93CF93DF93FB01238121FD03
:101A600003C08FEF9FEF2CC022FF16C04681578125
:101A7000248135814217530744F4A081B1819D012F
:101A80002F5F3F4F318320838C93268137812F5FD7
:101A90003F4F3783268314C08B01EC01FB01008488
:101AA000F185E02D0995892BE1F6D80116968D91E7
:101AB0009C911797019617969C938E931697CE013B
:101AC000DF91CF911F910F910895FA01AA27283035
:101AD00051F1203181F1E8946F936E7F6E5F7F4FFB
:101AE0008F4F9F4FAF4FB1E03ED0B4E03CD0670F77
:101AF000781F891F9A1FA11D680F791F8A1F911DCA
:101B0000A11D6A0F711D811D911DA11D20D009F419
:101B100068943F912AE0269F11243019305D31935B
:101B2000DEF6CF010895462F4770405D4193B3E044
:101B30000FD0C9F7F6CF462F4F70405D4A3318F0EB
:101B4000495D31FD4052419302D0A9F7EACFB4E09C
:101B5000A6959795879577956795BA95C9F7009754
:101B60006105710508959B01AC010A2E06945795F5
:101B7000479537952795BA95C9F7620F731F841F4C
:101B8000951FA01D08952F923F924F925F926F92E2
:101B90007F928F929F92AF92BF92CF92DF92EF92FD
:101BA000FF920F931F93CF93DF93CDB7DEB7CA1B7E
:101BB000DB0B0FB6F894DEBF0FBECDBF09942A88A9
:101BC000398848885F846E847D848C849B84AA8451
:101BD000B984C884DF80EE80FD800C811B81AA81DE
:101BE000B981CE0FD11D0FB6F894DEBF0FBECDBFA9
:081BF000ED010895F894FFCF08
:101BF80001000000D00700000000000005D04848A0
:101C080048784C4C4C0025750053494E41495320A7
:101C18005649544149530062706D002553704F3244
:101C28000043006D6D486700504152414D45545284
:101C38004F53002A20526573702F6D696E002A2059
:101C4800254F32002A20766F6C756D650078004547
:061C580052524F21000072
:00000001FF
