S00F0000537072696E74382E737265635D
S11300000C9424010C9443010C9492010C94D90196
S11300100C9441010C9477020C9441010C9441011D
S11300200C9441010C9441010C9441010C94410144
S11300300C9441010C9441010C94FA010C9441017B
S11300400C9441010C9441010C944E080C94410110
S11300500C9441010C9441010C9441010C94410114
S11300600C9441010C944101000000000000005F69
S113007000000007000700147F147F14242A7F2A3D
S11300801223130864623649552250000503000008
S1130090001C2241000041221C0014083E081408E0
S11300A0083E0808005030000008080808080060EE
S11300B060000020100804023E5149453E00427F82
S11300C0400042615149462141454B311814127F89
S11300D01027454545393C4A494930017109050312
S11300E03649494936064949291E0036360000007A
S11300F0563600000814224100141414141400414C
S11301002214080201510906324979413E7E111137
S1130110117E7F494949363E414141227F41412276
S11301201C7F494949417F090909013E4149497AEE
S11301307F0808087F00417F41002040413F017F44
S1130140081422417F404040407F020C027F7F041C
S113015008107F3E4141413E7F090909063E415155
S1130160215E7F09192946464949493101017F0128
S1130170013F4040403F1F2040201F3F4038403F48
S11301806314081463070870080761514945430064
S11301907F41410002040810200041417F00040215
S11301A00102044040404040000102040020545435
S11301B054787F48444438384444442038444448BC
S11301C07F3854545418087E0901020C5252523E8E
S11301D07F0804047800447D40002040443D007FB3
S11301E01028440000417F40007C041804787C08F7
S11301F004047838444444387C141414080814144F
S1130200187C7C080404084854545420043F444097
S1130210203C4040207C1C2040201C3C4030403C82
S113022044281028440C5050503C4464544C44001E
S11302300836410000007F00000041360800100825
S1130240081008000000000011241FBECFEFD8E002
S1130250DEBFCDBF11E0A0E0B1E0ECE9FCE102C0FB
S113026005900D92A236B107D9F723E0A2E6B1E0DA
S113027001C01D92A937B207E1F70E94E9050C9469
S11302804C0E0C9400001F920F920FB60F92112483
S11302902F933F934F935F938F939F9380910A0182
S11302A08E31A8F52091080130910901203A9FE090
S11302B0390768F54091680150916901483051054A
S11302C030F590917501923041F09330D1F0913036
S11302D0F1F48F5F80930A011AC028533F4F309383
S11302E009012093080180916A0190916B010A969B
S11302F090936B0180936A0130938B0020938A0062
S113030006C04F5F5F4F50936901409368019F910E
S11303108F915F914F913F912F910F900FBE0F904E
S11303201F9018951F920F920FB60F9211242F93BE
S11303303F938F939F9380910A01863088F1209197
S1130340080130910901213D97E0390748F1909166
S11303507501923041F09330D1F0913009F581501C
S113036080930A011DC0285C310930930901209350
S1130370080180916A0190916B010A9790936B0137
S113038080936A0130938B0020938A0009C0809186
S113039068019091690101979093690180936801C4
S11303A09F918F913F912F910F900FBE0F901F90AF
S11303B018951F920F920FB60F9211248F939F934B
S11303C080916701882351F090917501933020F456
S11303D09F5F9093750102C01092750191E08111A5
S11303E090E0909367019F918F910F900FBE0F90B3
S11303F01F9018951F920F920FB60F921124CF924F
S1130400DF92EF92FF922F933F934F935F936F93FB
S11304107F938F939F93AF93BF93EF93FF938091B9
S11304206F0190917001A0917101B09172010196D8
S1130430A11DB11D80936F0190937001A093710170
S1130440B09372019BB181E089278BB9C0906F0191
S1130450D0907001E0907101F0907201C701B60173
S113046028EC30E040E050E00E94DD0A672B682B66
S1130470692B19F481E08093780160910A0170E09E
S113048086EA9EE00E94C90A9B01770F440B550B34
S1130490C701B6010E94DD0A672B682B692B19F48A
S11304A081E080937701C701B60126E930E040E09E
S11304B050E00E94DD0A672B682B692B19F481E058
S11304C080937601FF91EF91BF91AF919F918F91AE
S11304D07F916F915F914F913F912F91FF90EF909A
S11304E0DF90CF900F900FBE0F901F9018951F9222
S11304F00F920FB60F921124CF92DF92EF92FF92D8
S11305002F933F934F935F936F937F938F939F9317
S1130510AF93BF93EF93FF93C0906F01D09070019E
S1130520E0907101F09072018091630190916401F7
S1130530A0916501B0916601A7019601281B390BB2
S11305404A0B5B0B220F331F441F551F60E777E1F3
S113055080E090E00E94DD0A3093740120937301DF
S1130560C0926301D0926401E0926501F092660149
S1130570FF91EF91BF91AF919F918F917F916F9177
S11305805F914F913F912F91FF90EF90DF90CF902B
S11305900F900FBE0F901F9018950F931F932091EB
S11305A00401309105013093890020938800FC01F7
S11305B02081222309F47AC0409100015091010165
S11305C06091020170910301452B462B472B81F169
S11305D04091040150910501609106017091070159
S11305E0403DF7E05F0761057105A9F41092000131
S11305F010920101109202011092030140ED57E0A4
S113060060E070E04093040150930501609306019B
S11306107093070149C04A5F510961097109409308
S113062004015093050160930601709307013CC0D7
S113063020916801309169016AEF629FA001639F74
S1130640500D11244053584F60E070E000910401B4
S113065010910501209106013091070140175107BF
S113066062077307A9F401E010E020E030E0009392
S11306700001109301012093020130930301409380
S113068004015093050160930601709307010CC0A7
S113069006501F4F2F4F3F4F009304011093050145
S11306A02093060130930701FC0110821F910F91E2
S11306B008956F927F928F929F92AF92BF92CF9242
S11306C0DF92EF92FF920F931F93CF93DF93CDB7F7
S11306D0DEB769970FB6F894DEBF0FBECDBFFC013D
S11306E07081772309F4F5C16B2C7A2C0E8B1F8B48
S11306F0288F398F052F842E962E5C010E94E706E1
S113070060E080E00E94C00780917501813009F4A7
S113071099C038F0823009F401C1833009F46AC108
S1130720D4C10F938F920F2EF3E1CF2EF1E0DF2E81
S1130730F02DDF92CF924E01F2E18F0E911C9F9229
S11307408F920E94620B20E030E040E251E46E8917
S11307507F89888D998D0E94500A0E9493097F9306
S11307606F93DF92CF928E01065F1F4F1F930F93FB
S11307700E94620B8D858E878C858D878EE28C8797
S1130780FF92EF92DF92CF927E0187E0E80EF11C98
S1130790FF92EF920E94620B0E94E70660E080E005
S11307A00E94C00761E086E191E00E94AF076AE021
S11307B080E00E94C00761E0C4010E94AF076AE0C4
S11307C08BE20E94C00761E084E291E00E94AF07DF
S11307D064E180E00E94C00761E0C7010E94AF07A6
S11307E064E18BE20E94C00761E088E291E00E942C
S11307F0AF076EE180E00E94C00761E0C8010E947B
S1130800AF076EE18BE20E94C00761E08EE291E0E7
S11308100E94AF0768E280E00E94C00761E08BE0BD
S113082091E00E94AF0768E28BE20E94C00761E09A
S113083080E391E00E94AF070FB6F894DEBF0FBECD
S1130840CDBF43C10E94E7061F929F920F2EF3E192
S1130850EF2EF1E0FF2EF02DFF92EF924E01FFE01C
S11308608F0E911C9F928F920E94620BDF92CF9207
S1130870FF92EF92CE0101966C019F938F930E9499
S1130880620B6F927F92FF92EF928E010C5F1F4F6B
S11308901F930F930E94620B60E080E00E94C007E8
S11308A061E085E391E00E94AF076FE080E00E9481
S11308B0C00761E0C4010E94AF076FE089E10E94B4
S11308C0C00761E080E491E00E94AF0769E180E045
S11308D00E94C00761E0C6010E94AF0769E189E197
S11308E00E94C00761E08CE491E00E94AF0763E2DC
S11308F080E00E94C00761E0C8010E94AF0763E284
S113090089E10E94C00761E082E591E00E94AF079F
S11309100FB6F894DEBF0FBECDBFD7C00E94E70666
S11309201F929F920F2EF3E1EF2EF1E0FF2EF02D98
S1130930FF92EF924E01FFE08F0E911C9F928F92D7
S11309400E94620BDF92CF92FF92EF92CE0101964A
S11309506C019F938F930E94620B6F927F92FF9220
S1130960EF928E010C5F1F4F1F930F930E94620B37
S113097060E080E00E94C00761E085E391E00E94AE
S1130980AF076FE080E00E94C00761E0C4010E94ED
S1130990AF076FE089E10E94C00761E081E491E064
S11309A00E94AF0769E180E00E94C00761E0C601D0
S11309B00E94AF0769E189E10E94C00761E08BE40E
S11309C091E00E94AF0763E280E00E94C00761E00B
S11309D0C8010E94AF0763E289E10E94C00761E099
S11309E082E591E00E94AF070FB6F894DEBF0FBE18
S11309F0CDBF6BC00E94E7061F929F920F2EF3E1BA
S1130A00EF2EF1E0FF2EF02DFF92EF924E01FFE06A
S1130A108F0E911C9F928F920E94620BDF92CF9255
S1130A20FF92EF92CE0101966C019F938F930E94E7
S1130A30620B6F927F92FF92EF928E010C5F1F4FB9
S1130A401F930F930E94620B60E080E00E94C00736
S1130A5061E085E391E00E94AF076FE080E00E94CF
S1130A60C00761E0C4010E94AF076FE089E10E9402
S1130A70C00761E081E491E00E94AF0769E180E092
S1130A800E94C00761E0C6010E94AF0769E189E1E5
S1130A900E94C00761E08CE491E00E94AF0763E22A
S1130AA080E00E94C00761E0C8010E94AF0763E2D2
S1130AB089E10E94C00761E081E591E00E94AF07EF
S1130AC00FB6F894DEBF0FBECDBF0E94C507F50177
S1130AD0108269960FB6F894DEBF0FBECDBFDF91CA
S1130AE0CF911F910F91FF90EF90DF90CF90BF9027
S1130AF0AF909F908F907F906F900895CF93DF93E6
S1130B00FC012081222309F461C0EC01809162017F
S1130B10882319F08130E9F034C060917800709135
S1130B20790080E090E00E94C2092AE037ED43EAB0
S1130B3051E40E94210920E030E040E251E40E94A7
S1130B40B5080E94930960936E0181E480937C0050
S1130B5020C0609178007091790080E090E00E945C
S1130B60C2092FE632E143E051E40E9421090E94C8
S1130B70930970936D0160936C0180E480937C0011
S1130B8008C010926E018FEF90E090936D018093F6
S1130B906C0180916201811104C08F5F80936201B6
S1130BA002C01092620180916E018252883030F44A
S1130BB080916C0190916D01CC9720F48BB1806889
S1130BC08BB903C08BB18F778BB91882DF91CF912A
S1130BD008958FEB84B990E495B98CEF87B980E8D8
S1130BE08AB98EEF8BB98AE08093690083E08DBB6C
S1130BF025E02093680020E220936D0090936B0021
S1130C0022E024BD85BD39EF37BD20936E002FE36C
S1130C103CE9309387002093860022EA20938000E9
S1130C202AE12093810020ED37E03093890020935E
S1130C30880030938B0020938A0090937C0097EE79
S1130C4090937A0010927B0080937E0078940E94A7
S1130C508C0687E690E00E94DE0786E791E00E941A
S1130C607E0587E791E00E94CD02A0906801B090D4
S1130C706901C0906A01D0906B01E0906C01F09022
S1130C806D0160916E0170E080E090E00E94C20905
S1130C908B019C01409173015091740160910A0190
S1130CA088E791E00E945903D8CF98B19F7B98B907
S1130CB0662329F098B1986098B990E01FC098B164
S1130CC0977F98B9FACF47E050E0491B5109282F84
S1130CD030E002C0359527954A95E2F720FF04C01D
S1130CE028B1206128B903C028B12F7E28B928B1C2
S1130CF0206228B928B12F7D28B99F5F983018F356
S1130D0088B1806488B9089560E00E94550608950A
S1130D1061E00E9455060895CF93DF9387B1806404
S1130D2087B987B1846087B987B1886087B987B18B
S1130D30806187B987B1806287B988B1846088B9D6
S1130D4088B1806488B98FE39CE90197F1F700C00A
S1130D50000088B18B7F88B99FEF2AE683E0915029
S1130D6020408040E1F700C0000088B1846088B969
S1130D7088B18F7B88B981E20E94840683E10E9456
S1130D80840686E00E94840682EC0E94840680E247
S1130D900E94840689E00E94840680E80E948406FA
S1130DA080E40E948406C0E0D0E004C080E00E9499
S1130DB088062196C83F91E0D907C0F388E00E94D5
S1130DC084068CE00E948406DF91CF91089580E828
S1130DD00E94840680E40E9484061092710310929B
S1130DE0720380E090E005C0FC01E758FE4F1082DA
S1130DF00196883F21E09207B8F30895262F26959F
S1130E002695269590E034E5239F800D911D1124AD
S1130E10442379F0677021E030E002C0220F331FD1
S1130E206A95E2F7FC01E758FE4F8081282B208366
S1130E300895677021E030E002C0220F331F6A95E5
S1130E40E2F7FC01E758FE4F209580812823208398
S1130E500895EF92FF920F931F93CF93DF93E82EA1
S1130E60F62E00E045C02E2D30E020523109802FAF
S1130E706F2D0E94BD0AF901EE0FFF1FEE0FFF1F39
S1130E80E20FF31FE80FF11DE859FF4FE491812FA2
S1130E900E94BD0AF0E002C0F595E7958A95E2F755
S1130EA0E0FF0AC06091720380917103610F41E019
S1130EB0800F0E94FE0609C0609172038091710345
S1130EC0610F40E0800F0E94FE061F5F01C010E02A
S1130ED0212F30E0CE01880F991F880F991F880FAA
S1130EE0991F8C1B9D0B281739070CF4BCCF0F5F7F
S1130EF0202F30E0CF2DD0E0CE01880F991F880F2E
S1130F00991F8C0F9D1F281739070CF3E1E7F3E0B5
S1130F108F2D880F880F8F0D9081890F8F5F8083AD
S1130F20843570F010927103E2E7F3E08F2D880F9F
S1130F30880F880F982F9F198081890F8F5F808376
S1130F4080917203803320F0109271031092720327
S1130F50DF91CF911F910F91FF90EF9008951F9310
S1130F60CF93DF93EC01162F04C02196612F0E94CA
S1130F70290788818111F9CFDF91CF911F910895BD
S1130F8080937103609372030895CF93DF9380E895
S1130F900E94840680E40E948406C0E0D0E007C07A
S1130FA0FE01E758FE4F80810E9488062196C83FC3
S1130FB081E0D807A8F3DF91CF9108959093C500FD
S1130FC08093C40088E98093C10086E08093C200C6
S1130FD087B1826087B987B18E7F87B90895EF9210
S1130FE0FF920F931F93CF93DF93CDB7DEB7629732
S1130FF00FB6F894DEBF0FBECDBF8B017A010E94FD
S1131000500B9A8B898B6AE571E0CE0141960E9460
S1131010380BBC01CE0101960E94310B6AE571E0E8
S1131020CE0141960E94380BBC01CE0109960E9464
S1131030310BCE0101960E94130BF801918380833A
S1131040CE0109960E94130B9C01F70191838083C2
S1131050F8014081518181E0483E534008F080E02E
S1131060932F9095991F9927991F41E0283E33406B
S11310700CF040E0892321F0442311F081E001C009
S113108080E062960FB6F894DEBF0FBECDBFDF914D
S1131090CF911F910F91FF90EF9008951F920F929F
S11310A00FB60F9211242F933F934F935F936F9337
S11310B07F938F939F93AF93BF93EF93FF9380910D
S11310C0C6008A3341F08B3311F581E080937403B9
S11310D01092730338C010927403E0917303F0E02C
S11310E0E55FFE4F108247E753E065E773E08BE06E
S11310F091E00E94EF07811126C086E0ECE5F1E063
S1131100ABE0B1E001900D928A95E1F71CC090919B
S113111074039923C1F0E0917303E73048F491E03C
S11311209E0F90937303F0E0E55FFE4F80830BC046
S11311301092740386E0ECE5F1E0ABE0B1E00190DD
S11311400D928A95E1F7FF91EF91BF91AF919F9135
S11311508F917F916F915F914F913F912F910F905C
S11311600FBE0F901F9018955058BB27AA270E94B6
S1131170CC080C94160A0E94080A38F00E940F0A40
S113118020F039F49F3F19F426F40C94050A0EF468
S1131190E095E7FB0C94FF09E92F0E94270A58F316
S11311A0BA17620773078407950720F079F4A6F548
S11311B00C94490A0EF4E0950B2EBA2FA02D0B01C6
S11311C0B90190010C01CA01A0011124FF27591B88
S11311D099F0593F50F4503E68F11A16F040A22F8E
S11311E0232F342F4427585FF3CF469537952795FF
S11311F0A795F0405395C9F77EF41F16BA0B620BFE
S1131200730B840BBAF09150A1F0FF0FBB1F661F44
S1131210771F881FC2F70EC0BA0F621F731F841F87
S113122048F4879577956795B795F7959E3F08F0AD
S1131230B0CF9395880F08F09927EE0F979587956F
S113124008950E9435090C94160A0E940F0A58F05A
S11312500E94080A40F029F45F3F29F00C94FF092A
S113126051110C944A0A0C94050A0E94270A68F347
S11312709923B1F3552391F3951B550BBB27AA274B
S113128062177307840738F09F5F5F4F220F331F85
S1131290441FAA1FA9F335D00E2E3AF0E0E832D04D
S11312A091505040E695001CCAF72BD0FE2F29D050
S11312B0660F771F881FBB1F261737074807AB0722
S11312C0B0E809F0BB0B802DBF01FF2793585F4F97
S11312D03AF09E3F510578F00C94FF090C944A0AA9
S11312E05F3FE4F3983ED4F3869577956795B79579
S11312F0F7959F5FC9F7880F911D9695879597F984
S11313000895E1E0660F771F881FBB1F62177307FC
S11313108407BA0720F0621B730B840BBA0BEE1F11
S113132088F7E09508950E942F0A88F09F5798F057
S1131330B92F9927B751B0F0E1F0660F771F881FD6
S1131340991F1AF0BA95C9F714C0B13091F00E94F0
S1131350490AB1E008950C94490A672F782F882729
S1131360B85F39F0B93FCCF3869577956795B39517
S1131370D9F73EF490958095709561957F4F8F4F86
S11313809F4F0895E89409C097FB3EF4909580958B
S1131390709561957F4F8F4F9F4F9923A9F0F92F37
S11313A096E9BB279395F695879577956795B795B5
S11313B0F111F8CFFAF4BB0F11F460FF1BC06F5F9B
S11313C07F4F8F4F9F4F16C0882311F096E911C0AD
S11313D0772321F09EE8872F762F05C0662371F0CE
S11313E096E8862F70E060E02AF09A95660F771FE2
S11313F0881FDAF7880F9695879597F9089597F9D6
S11314009F6780E870E060E008959FEF80EC0895A6
S113141000240A94161617061806090608950024CF
S11314200A9412161306140605060895092E039449
S1131430000C11F4882352F0BB0F40F4BF2B11F4BD
S113144060FF04C06F5F7F4F8F4F9F4F089557FD1C
S11314509058440F551F59F05F3F71F04795880F1E
S113146097FB991F61F09F3F79F0879508951216B5
S113147013061406551FF2CF4695F1DF08C0161661
S113148017061806991FF1CF869571056105089412
S11314900895E894BB2766277727CB0197F9089529
S11314A00E94630A0C94160A0E94080A38F00E94EB
S11314B00F0A20F0952311F00C94FF090C94050AEF
S11314C011240C944A0A0E94270A70F3959FC1F3D1
S11314D0950F50E0551F629FF001729FBB27F00DDE
S11314E0B11D639FAA27F00DB11DAA1F649F662733
S11314F0B00DA11D661F829F2227B00DA11D621F82
S1131500739FB00DA11D621F839FA00D611D221F3B
S1131510749F3327A00D611D231F849F600D211D1F
S1131520822F762F6A2F11249F5750409AF0F1F0A2
S113153088234AF0EE0FFF1FBB1F661F771F881F0B
S113154091505040A9F79E3F510580F00C94FF093B
S11315500C944A0A5F3FE4F3983ED4F3869577955A
S11315606795B795F795E7959F5FC1F7FE2B880FB1
S1131570911D9695879597F90895991B79E004C074
S1131580991F961708F0961B881F7A95C9F78095BE
S1131590089597FB072E16F4009407D077FD09D021
S11315A00E94FF0A07FC05D03EF4909581959F4F59
S11315B00895709561957F4F0895A1E21A2EAA1B94
S11315C0BB1BFD010DC0AA1FBB1FEE1FFF1FA217EF
S11315D0B307E407F50720F0A21BB30BE40BF50BEC
S11315E0661F771F881F991F1A9469F76095709575
S11315F0809590959B01AC01BD01CF010895AA1B74
S1131600BB1B51E107C0AA1FBB1FA617B70710F0E9
S1131610A61BB70B881F991F5A95A9F7809590951B
S1131620BC01CD010895FC0188279927E8942191F4
S11316302032E9F3293010F02E30C8F32B3241F078
S11316402D3239F4689404C00E945A0B820F911D04
S1131650219120532A30C0F31EF4909581959F4F19
S11316600895FB01DC0101900D920020E1F708953B
S1131670FC01A081B181AD01109681F03D91FB0187
S1131680019003160110E1F7C9F7002011F4D0010D
S113169002C01E921196FC01A083B183CA01089571
S11316A0DC016C9161566A3108F0605E6F5B6D938A
S11316B0C1F708957AE0979F902D879F802D910D13
S11316C011240895AEE0B0E0E8E6FBE00C94230EAC
S11316D00D891E8986E08C831A8309838FEF9FE727
S11316E09E838D83AE01475E5F4F6F89788DCE01F7
S11316F001960E94840BEF81F885E00FF11F1082A0
S11317002E96E4E00C943F0EABE0B0E0EAE8FBE098
S11317100C94150E6C017B018A01FC011782168260
S1131720838181FFCCC1CE0101963C01F6019381F6
S1131730F70193FD859193FF81917F01882309F43B
S1131740BAC1853239F493FD859193FF81917F016C
S1131750853229F4B60190E00E947B0DE7CF912CED
S1131760212C312CFFE1F315D8F08B3279F038F4C9
S1131770803279F08332A1F4232D20611DC08D3293
S113178061F0803369F4232D216016C0832D8260BB
S1131790382EE32DE4603E2E2AC0F32DF8601DC0E0
S11317A037FC2DC020ED280F2A3040F08E32B9F4DA
S11317B036FC81C1232D2064322E19C036FE06C0AA
S11317C08AE0989E200D1124922E11C0EAE02E9EEC
S11317D0200D1124222EF32DF0623F2E08C08C36EA
S11317E021F4832D8068382E02C0883641F4F70135
S11317F093FD859193FF81917F018111B3CF982F40
S11318009F7D9554933028F40C5F1F4F9FE3998379
S11318100DC0833631F0833771F0833509F059C038
S113182021C0F801808189830E5F1F4F882483942F
S1131830912C530113C02801F2E04F0E511CF80102
S1131840A080B18036FE03C0692D70E002C06FEF46
S11318507FEFC5010E94700D4C018201F32DFF77CB
S11318603F2E16C0280122E0420E511CF801A08030
S1131870B18036FE03C0692D70E002C06FEF7FEFC8
S1131880C5010E94650D4C01F32DF0683F2E8201C5
S113189033FC1BC0822D90E088169906B0F4B60183
S11318A080E290E00E947B0D2A94F4CFF50137FC8E
S11318B0859137FE81915F01B60190E00E947B0D16
S11318C021102A9421E0821A91088114910471F75D
S11318D0E8C0843611F0893641F5F80137FE07C0B7
S11318E060817181828193810C5F1F4F08C0608188
S11318F07181072E000C880B990B0E5F1F4FF32D7F
S1131900FF763F2E97FF09C090958095709561955D
S11319107F4F8F4F9F4FF0683F2E2AE030E0A301A6
S11319200E94B70D882E861845C0853731F4232DC3
S11319302F7EB22E2AE030E025C0932D997FB92E58
S11319408F36C1F018F4883579F0B5C0803719F0B6
S1131950883721F0B0C0E92FE061BE2EB4FE0DC07F
S1131960FB2DF460BF2E09C034FE0AC0292F266067
S1131970B22E06C028E030E005C020E130E002C00D
S113198020E132E0F801B7FE07C0608171818281F5
S113199093810C5F1F4F06C06081718180E090E0ED
S11319A00E5F1F4FA3010E94B70D882E8618FB2DD2
S11319B0FF773F2E36FE0DC0232D2E7FA22E8914D5
S11319C058F434FE0BC032FC09C0832D8E7EA82E41
S11319D005C0B82CA32C03C0B82C01C0B92CA4FE9C
S11319E00FC0FE01E80DF11D8081803321F49A2D92
S11319F0997EA92E09C0A2FE06C0B394B39404C074
S1131A008A2D867809F0B394A3FC11C0A0FE06C009
S1131A10B21488F4280C922C9B180EC0B21460F4F3
S1131A20B60180E290E00E947B0DB394F7CFB2142C
S1131A3018F42B1802C0982C212CA4FE10C0B60157
S1131A4080E390E00E947B0DA2FE17C0A1FC03C0BE
S1131A5088E790E002C088E590E0B6010CC08A2DCA
S1131A60867859F0A1FE02C08BE201C080E2A7FC97
S1131A708DE2B60190E00E947B0D891438F4B60122
S1131A8080E390E00E947B0D9A94F7CF8A94F3014F
S1131A90E80DF11D8081B60190E00E947B0D81105C
S1131AA0F5CF222009F442CEB60180E290E00E94F4
S1131AB07B0D2A94F6CFF6018681978102C08FEFC1
S1131AC09FEF2B96E2E10C94310EFC0105906150DE
S1131AD070400110D8F7809590958E0F9F1F089540
S1131AE0FC016150704001900110D8F780959095E9
S1131AF08E0F9F1F08950F931F93CF93DF93FB01C6
S1131B00238121FD03C08FEF9FEF2CC022FF16C05D
S1131B1046815781248135814217530744F4A081BB
S1131B20B1819D012F5F3F4F318320838C932681A8
S1131B3037812F5F3F4F3783268314C08B01EC011D
S1131B40FB010084F185E02D0995892BE1F6D8018C
S1131B5016968D919C911797019617969C938E9348
S1131B601697CE01DF91CF911F910F910895FA013D
S1131B70AA27283051F1203181F1E8946F936E7FC8
S1131B806E5F7F4F8F4F9F4FAF4FB1E03ED0B4E0B9
S1131B903CD0670F781F891F9A1FA11D680F791FFA
S1131BA08A1F911DA11D6A0F711D811D911DA11D0B
S1131BB020D009F468943F912AE0269F112430191B
S1131BC0305D3193DEF6CF010895462F4770405DB6
S1131BD04193B3E00FD0C9F7F6CF462F4F70405D65
S1131BE04A3318F0495D31FD4052419302D0A9F7C0
S1131BF0EACFB4E0A6959795879577956795BA95BA
S1131C00C9F700976105710508959B01AC010A2E7F
S1131C1006945795479537952795BA95C9F7620F56
S1131C20731F841F951FA01D08952F923F924F92FA
S1131C305F926F927F928F929F92AF92BF92CF9258
S1131C40DF92EF92FF920F931F93CF93DF93CDB761
S1131C50DEB7CA1BDB0B0FB6F894DEBF0FBECDBFD9
S1131C6009942A88398848885F846E847D848C84AA
S1131C709B84AA84B984C884DF80EE80FD800C81B3
S1131C801B81AA81B981CE0FD11D0FB6F894DEBF96
S10F1C900FBECDBFED010895F894FFCF06
S1131C9C01000000D0070000D00705484848784CE4
S1131CAC4C4C0025750053494E4149532056495418
S1131CBC4149530062706D002553704F320043004C
S1131CCC6D6D486700504152414D4554524F53007D
S1131CDC2A20526573702F6D696E002A20254F32AD
S1131CEC002A20766F6C756D650078004552524F52
S1051CFC2100C1
S9030000FC
