S00F0000537072696E74382E737265635D
S11300000C9442010C949C010C94E4010C94EE01B8
S11300100C945F010C949B020C945F010C945F019F
S11300200C945F010C9461010C945F010C945F01CA
S11300300C945F010C945F010C940F020C945F010B
S11300400C945F010C945F010C9440090C945F01C3
S11300500C945F010C945F010C945F010C945F019C
S11300600C945F010C945F014E414E494E49545922
S1130070494E46CDCCCC3D0AD7233C17B7D138776F
S1130080CC2B329595E6241FB14F0A000020410085
S113009000C84200401C4620BCBE4CCA1B0E5AAECF
S11300A0C59D74000000000000005F000000070010
S11300B00700147F147F14242A7F2A122313086450
S11300C06236495522500005030000001C224100FD
S11300D00041221C0014083E081408083E080800C9
S11300E05030000008080808080060600000201074
S11300F00804023E5149453E00427F40004261519E
S113010049462141454B311814127F102745454576
S1130110393C4A4949300171090503364949493690
S1130120064949291E0036360000005636000008EC
S1130130142241001414141414004122140802015E
S1130140510906324979413E7E1111117E7F494998
S113015049363E414141227F4141221C7F49494960
S1130160417F090909013E4149497A7F0808087F0E
S113017000417F41002040413F017F081422417F1C
S1130180404040407F020C027F7F0408107F3E41C4
S113019041413E7F090909063E4151215E7F09190B
S11301A02946464949493101017F01013F40404008
S11301B03F1F2040201F3F4038403F631408146312
S11301C007087008076151494543007F4141000217
S11301D0040810200041417F000402010204404051
S11301E0404040000102040020545454787F4844A5
S11301F044383844444420384444487F38545454A0
S113020018087E0901020C5252523E7F08040478F9
S113021000447D40002040443D007F1028440000FD
S1130220417F40007C041804787C08040478384436
S11302304444387C14141408081414187C7C0804EE
S113024004084854545420043F4440203C40402077
S11302507C1C2040201C3C4030403C442810284456
S11302600C5050503C4464544C4400083641000047
S1130270007F000000413608001008081008000044
S11302800000000011241FBECFEFD8E0DEBFCDBFB9
S113029011E0A0E0B1E0E6EBF2E202C005900D92BD
S11302A0AC39B107D9F723E0ACE9B1E001C01D9244
S11302B0AF3BB207E1F70E94E1030C9459110C948F
S11302C000001F920F920FB60F9211248F939F93E9
S11302D08091B3019091B40101969093B4018093FD
S11302E0B301CC9711F51092B4011092B30180912F
S11302F0B1019091B20101969093B2018093B10142
S1130300CC9799F41092B2011092B1018091AF018F
S11303109091B00101969093B0018093AF014897FA
S113032021F41092B0011092AF019F918F910F9020
S11303300FBE0F901F9018951F920F920FB60F9239
S113034011242F933F938F939F93EF93FF93809167
S11303500C018E3170F52091A2013091A301283057
S1130360310538F59091AA01923041F09330D9F0DB
S11303709130F9F48F5F80930C011BC0E8E0F1E049
S11303808581885385832091A4013091A501265F3E
S11303903F4F3093A5012093A40190E090938B00EC
S11303A080938A0006C02F5F3F4F3093A3012093B0
S11303B0A201FF91EF919F918F913F912F910F9007
S11303C00FBE0F901F9018951F920F920FB60F92A9
S11303D011240F900FBE0F901F9018951F920F922B
S11303E00FB60F9211248F939F938091A1018823BC
S11303F051F09091AA01943020F49F5F9093AA0148
S113040002C01092AA0191E0811190E09093A101A1
S11304109F918F910F900FBE0F901F9018951F9270
S11304200F920FB60F921124CF92DF92EF92FF92A8
S11304302F933F934F935F936F937F938F939F93E8
S1130440AF93BF93EF93FF938091A6019091A7017F
S1130450A091A801B091A9010196A11DB11D80939D
S1130460A6019093A701A093A801B093A9019BB101
S113047081E089278BB9C090A601D090A701E090B4
S1130480A801F090A901C701B60128EC30E040E0D2
S113049050E00E94310C672B682B692B19F481E022
S11304A08093AE0160910C0170E086EA9EE00E94A8
S11304B01D0C9B01770F440B550BC701B6010E941D
S11304C0310C672B682B692B19F481E08093AD0103
S11304D0C701B60126E930E040E050E00E94310C4B
S11304E0672B682B692B19F481E08093AC01C70159
S11304F0B60128EE33E040E050E00E94310C672B57
S1130500682B692B19F081E08093AB01FF91EF9187
S1130510BF91AF919F918F917F916F915F914F9117
S11305203F912F91FF90EF90DF90CF900F900FBEEF
S11305300F901F9018951F920F920FB60F921124CF
S1130540CF92DF92EF92FF922F933F934F935F935B
S11305506F937F938F939F93AF93BF93EF93FF9387
S1130560C090A601D090A701E090A801F090A90145
S113057080919D0190919E01A0919F01B091A00155
S1130580A7019601281B390B4A0B5B0B220F331F63
S1130590441F551F60E777E180E090E00E94310C32
S11305A03093090120930801C0929D01D0929E01CD
S11305B0E0929F01F092A001FF91EF91BF91AF9162
S11305C09F918F917F916F915F914F913F912F9167
S11305D0FF90EF90DF90CF900F900FBE0F901F9081
S11305E018950F931F9320910401309105013093C6
S11305F0890020938800FC012081222309F47AC019
S11306004091000150910101609102017091030138
S1130610452B462B472B81F1409104015091050154
S11306206091060170910701403DF7E05F076105A5
S11306307105A9F4109200011092010110920201B7
S11306401092030140ED57E060E070E04093040134
S113065050930501609306017093070149C04A5FF6
S11306605109610971094093040150930501609394
S11306700601709307013CC02091A2013091A301AF
S11306806AEF629FA001639F500D11244053584F9D
S113069060E070E0009104011091050120910601D1
S11306A0309107014017510762077307A9F401E06D
S11306B010E020E030E0009300011093010120934A
S11306C002013093030140930401509305016093A8
S11306D00601709307010CC006501F4F2F4F3F4F68
S11306E00093040110930501209306013093070140
S11306F0FC0110821F910F910895CF93DF93FC01A9
S11307002081222309F45AC0EC0180919C018823A2
S113071019F08130E9F032C060917800709179006D
S113072080E090E00E94160B2AE037ED43EA51E4A2
S11307300E94750A20E030E040E251E40E94090A78
S11307400E94E70A60930A0181E480937C001BC045
S1130750609178007091790080E090E00E94160B1F
S11307602FE632E143E051E40E94750A0E94E70A51
S113077060930B0180E480937C0005C0E8E0F1E025
S113078012828FEF838380919C01811104C08F5F5B
S113079080939C0102C010929C0180910A018252B4
S11307A0883020F480910B018C3320F48BB1806865
S11307B08BB903C08BB18F778BB91882DF91CF913E
S11307C008958FEB84B990E495B98CEF87B980E8EC
S11307D08AB98EEF8BB98AE08093690083E08DBB80
S11307E025E02093680030E230936D0090936B0015
S11307F042E044BD85BD59EF57BD40936E004FE3C1
S11308005CE9509387004093860042EA409380005D
S11308104AE14093810040ED57E0509389004093B2
S1130820880050938B0040938A003093B600209345
S1130830B10021E02093700090937C0097EE909398
S11308407A0010927B0080937E0078940E947E0749
S113085087E690E00E94D0088CEA91E00E947D0334
S11308608DEA91E00E94F102C8E0D1E06A8170E073
S113087080E090E00E94160B8B019C014881598115
S11308808091B4018F938091B3018F938091B201D1
S11308908F938091B1018F938091B0018F93809158
S11308A0AF018F938090AA01A090A201C090A401EF
S11308B0EB806C818EEA91E00E9465040F900F90AA
S11308C00F900F900F900F90C7CF2F923F925F928F
S11308D06F927F928F929F92AF92BF92CF92DF924C
S11308E0EF92FF920F931F93CF93DF93CDB7DEB7B1
S11308F0AE970FB6F894DEBF0FBECDBF3C01F62E07
S1130900B42ED52E0BA71CA72DA73EA723965FAC0C
S1130910239724962FAC249725963FAC25972696AB
S11309209FAC269727960FAD279728961FAD28973B
S11309308EE091E00E94670C6BA37CA38DA39EA321
S113094082E191E00E94670C6FA378A789A79AA718
S113095082E191E00E94670C9B01AC016FA178A534
S113096089A59AA50E94A40B9B01AC016BA17CA153
S11309708DA19EA10E94750A6BA37CA38DA39EA347
S1130980F3018081882309F46AC20E94D90760E0D8
S113099080E00E94B208F2E08F1609F407C1F8154E
S11309A038F0882071F081E0881609F497C053C2AA
S11309B093E0891609F462C1E4E08E1609F4C6C115
S11309C04AC2DF92BF9208E611E01F930F936E01B3
S11309D0F2E1CF0ED11CDF92CF920E94BA0C20E03C
S11309E030E040E251E46BA57CA58DA59EA50E9454
S11309F0A40B0E94E70A7F936F931F930F935E01EA
S1130A008AE0A80EB11CBF92AF920E94BA0C8D85E9
S1130A108E878C858D878EE28C871F92EF921F9331
S1130A200F938E01095F1F4F1F930F930E94BA0CFF
S1130A300E94D90760E080E00E94B20861E08EE184
S1130A4091E00E94A1086AE080E00E94B20861E09F
S1130A50C6010E94A1086AE08BE20E94B20861E02C
S1130A608CE291E00E94A10864E180E00E94B20857
S1130A7061E0C8010E94A10864E18BE20E94B2080F
S1130A8061E080E391E00E94A1086EE180E00E94B1
S1130A90B20861E0C5010E94A1086EE18BE20E94E8
S1130AA0B20861E086E391E00E94A10868E280E078
S1130AB00E94B20861E086E191E00E94A10868E228
S1130AC08BE20E94B20861E088E391E00E94A108F1
S1130AD00FB6F894DEBF0FBECDBFBDC10E94D907CB
S1130AE01F92FF9208E611E01F930F937E01FFE02F
S1130AF0EF0EF11CFF92EF920E94BA0C1F92CF925C
S1130B001F930F93CE0101966C019F938F930E94C4
S1130B10BA0C1F92AF921F930F938E010C5F1F4F5D
S1130B201F930F930E94BA0C60E080E00E94B20809
S1130B3061E08DE391E00E94A1086FE080E00E94F3
S1130B40B20861E0C7010E94A1086FE089E10E9438
S1130B50B20861E088E491E00E94A10869E180E0C4
S1130B600E94B20861E0C6010E94A10869E189E11E
S1130B700E94B20861E084E591E00E94A10863E26A
S1130B8080E00E94B20861E0C8010E94A10863E20B
S1130B9089E10E94B20861E08AE591E00E94A1081F
S1130BA00FB6F894DEBF0FBECDBF55C10E94D90762
S1130BB01F92FF9208E611E01F930F937E01FFE05E
S1130BC0EF0EF11CFF92EF920E94BA0C1F92CF928B
S1130BD01F930F93CE0101966C019F938F930E94F4
S1130BE0BA0C1F92AF921F930F938E010C5F1F4F8D
S1130BF01F930F930E94BA0C60E080E00E94B20839
S1130C0061E08DE391E00E94A1086FE080E00E9422
S1130C10B20861E0C7010E94A1086FE089E10E9467
S1130C20B20861E089E491E00E94A10869E180E0F2
S1130C300E94B20861E0C6010E94A10869E189E14D
S1130C400E94B20861E083E591E00E94A10863E29A
S1130C5080E00E94B20861E0C8010E94A10863E23A
S1130C6089E10E94B20861E08AE591E00E94A1084E
S1130C700FB6F894DEBF0FBECDBFEDC00E94D907FA
S1130C801F92FF9208E611E01F930F937E01FFE08D
S1130C90EF0EF11CFF92EF920E94BA0C1F92CF92BA
S1130CA01F930F93CE0101966C019F938F930E9423
S1130CB0BA0C1F92AF921F930F938E010C5F1F4FBC
S1130CC01F930F930E94BA0C60E080E00E94B20868
S1130CD061E08DE391E00E94A1086FE080E00E9452
S1130CE0B20861E0C7010E94A1086FE089E10E9497
S1130CF0B20861E089E491E00E94A10869E180E022
S1130D000E94B20861E0C6010E94A10869E189E17C
S1130D100E94B20861E084E591E00E94A10863E2C8
S1130D2080E00E94B20861E0C8010E94A10863E269
S1130D3089E10E94B20861E089E591E00E94A1087E
S1130D400FB6F894DEBF0FBECDBF85C00E94D90791
S1130D501F930F939F923F922F925F9282E691E0AE
S1130D609F938F938E010A5E1F4F1F930F930E94D0
S1130D70BA0C60E080E00E94B20861E08BE691E08A
S1130D800E94A1086AE080E00E94B20861E089E75D
S1130D9091E00E94A1086AE080E30E94B20861E049
S1130DA0C8010E94A10864E180E00E94B20861E0E9
S1130DB082E191E00E94A10864E189E10E94B20805
S1130DC061E083E891E00E94A1086EE180E00E9466
S1130DD0B20861E08EE091E00E94A1086EE189E131
S1130DE00E94B20861E086E891E00E94A10820E038
S1130DF030E040E251E46BA17CA18DA19EA10E9450
S1130E00A40B0E94E70A7F936F9388E691E09F9377
S1130E108F93075F1F4F1F930F930E94BA0C8AA1F1
S1130E208BA389A18AA38EE289A368E280E00E9451
S1130E30B20861E0C8010E94A10868E289E10E9449
S1130E40B20861E08AE891E00E94A1080FB6F89424
S1130E50DEBF0FBECDBF0E94B708F3011082AE966D
S1130E600FB6F894DEBF0FBECDBFDF91CF911F91B7
S1130E700F91FF90EF90DF90CF90BF90AF909F9035
S1130E808F907F906F905F903F902F90089598B1CE
S1130E909F7B98B9662329F098B1986098B990E03F
S1130EA01FC098B1977F98B9FACF47E050E0491B2B
S1130EB05109282F30E002C0359527954A95E2F76D
S1130EC020FF04C028B1206128B903C028B12F7EB7
S1130ED028B928B1206228B928B12F7D28B99F5F8D
S1130EE0983018F388B1806488B9089560E00E944E
S1130EF04707089561E00E9447070895CF93DF9361
S1130F0087B1806487B987B1846087B987B1886005
S1130F1087B987B1806187B987B1806287B988B1A1
S1130F20846088B988B1806488B98FE39CE90197AB
S1130F30F1F700C0000088B18B7F88B99FEF2AE6E3
S1130F4083E0915020408040E1F700C0000088B168
S1130F50846088B988B18F7B88B981E20E94760762
S1130F6083E10E94760786E00E94760782EC0E9465
S1130F70760780E20E94760789E00E94760780E87F
S1130F800E94760780E40E947607C0E0D0E004C0A7
S1130F9080E00E947A072196C83F91E0D907C0F308
S1130FA088E00E9476078CE00E947607DF91CF915B
S1130FB0089580E80E94760780E40E9476071092E4
S1130FC0AD031092AE0380E090E005C0FC01EB5449
S1130FD0FE4F10820196883F21E09207B8F30895EE
S1130FE0262F26952695269590E034E5239F800D9F
S1130FF0911D1124442379F0677021E030E002C090
S1131000220F331F6A95E2F7FC01EB54FE4F8081F7
S1131010282B20830895677021E030E002C0220F5E
S1131020331F6A95E2F7FC01EB54FE4F2095808153
S1131030282320830895EF92FF920F931F93CF9359
S1131040DF93E82EF62E00E045C02E2D30E020522E
S11310503109802F6F2D0E94110CF901EE0FFF1F33
S1131060EE0FFF1FE20FF31FE80FF11DED55FF4FC9
S1131070E491812F0E94110CF0E002C0F595E795F0
S11310808A95E2F7E0FF0AC06091AE038091AD0358
S1131090610F41E0800F0E94F00709C06091AE0328
S11310A08091AD03610F40E0800F0E94F0071F5F45
S11310B001C010E0212F30E0CE01880F991F880F66
S11310C0991F880F991F8C1B9D0B281739070CF447
S11310D0BCCF0F5F202F30E0CF2DD0E0CE01880FA2
S11310E0991F880F991F8C0F9D1F281739070CF320
S11310F0EDEAF3E08F2D880F880F8F0D9081890F13
S11311008F5F8083843570F01092AD03EEEAF3E0D4
S11311108F2D880F880F880F982F9F198081890F32
S11311208F5F80838091AE03803320F01092AD03F3
S11311301092AE03DF91CF911F910F91FF90EF902A
S113114008951F93CF93DF93EC01162F04C02196CB
S1131150612F0E941B0888818111F9CFDF91CF9103
S11311601F9108958093AD036093AE030895CF93C8
S1131170DF9380E80E94760780E40E947607C0E04F
S1131180D0E007C0FE01EB54FE4F80810E947A0735
S11311902196C83F81E0D807A8F3DF91CF91089545
S11311A09093C5008093C40088E98093C10086E0D1
S11311B08093C20087B1826087B987B18E7F87B977
S11311C00895EF92FF920F931F93CF93DF93CDB7C0
S11311D0DEB762970FB6F894DEBF0FBECDBF8B01AA
S11311E07A010E94A80C9A8B898B61E971E0CE0187
S11311F041960E94900CBC01CE0101960E94890C7C
S113120061E971E0CE0141960E94900CBC01CE01CF
S113121009960E94890CCE0101960E946B0CF8017C
S113122091838083CE0109960E946B0C9C01F70187
S113123091838083F8014081518181E0483E53408D
S113124008F080E0932F9095991F9927991F41E00A
S1131250283E33400CF040E0892321F0442311F070
S113126081E001C080E062960FB6F894DEBF0FBE45
S1131270CDBFDF91CF911F910F91FF90EF90089513
S11312801F920F920FB60F9211242F933F934F93F7
S11312905F936F937F938F939F93AF93BF93EF93DA
S11312A0FF938091C6008B35D1F028F48A33E9F09E
S11312B08B3349F048C08B3761F08D3791F18D3510
S11312C009F041C037C081E08093B4031092B303A6
S11312D08EC081E08093B2031092B10388C081E094
S11312E08093B0031092AF0382C01092B403E091D4
S11312F0B303F0E0EA5EFE4F108249EB53E065EB86
S113130073E086E191E00E94E108811170C086E0FB
S1131310E3E9F1E0A6E1B1E001900D928A95E1F7ED
S113132066C01092B203E091B103F0E0EE5EFE4FAE
S113133010825DC01092B003E091AF03F0E0E25F71
S1131340FE4F108254C09091B0039923C1F0E091F4
S1131350AF03E43048F491E09E0F9093AF03F0E0C4
S1131360E25FFE4F80830BC01092B00396E0E3E986
S1131370F1E0AEE0B1E001900D929A95E1F7909121
S1131380B4039923C1F0E091B303E73048F491E04A
S11313909E0F9093B303F0E0EA5EFE4F80830BC090
S11313A01092B40396E0E3E9F1E0A6E1B1E0019024
S11313B00D929A95E1F79091B2039923C1F0E091CF
S11313C0B103E43048F491E09E0F9093B103F0E050
S11313D0EE5EFE4F80830BC01092B20386E0E3E919
S11313E0F1E0A2E1B1E001900D928A95E1F7FF915D
S11313F0EF91BF91AF919F918F917F916F915F9189
S11314004F913F912F910F900FBE0F901F90189501
S11314105058BB27AA270E94200A0C946A0B0E94EA
S11314205C0B38F00E94630B20F039F49F3F19F4F1
S113143026F40C94590B0EF4E095E7FB0C94530B33
S1131440E92F0E947B0B58F3BA17620773078407CE
S1131450950720F079F4A6F50C949D0B0EF4E09515
S11314600B2EBA2FA02D0B01B90190010C01CA015A
S1131470A0011124FF27591B99F0593F50F4503E05
S113148068F11A16F040A22F232F342F4427585FF7
S1131490F3CF469537952795A795F0405395C9F70F
S11314A07EF41F16BA0B620B730B840BBAF09150C7
S11314B0A1F0FF0FBB1F661F771F881FC2F70EC066
S11314C0BA0F621F731F841F48F487957795679539
S11314D0B795F7959E3F08F0B0CF9395880F08F025
S11314E09927EE0F9795879508950E94890A0C9481
S11314F06A0B0E94630B58F00E945C0B40F029F4C5
S11315005F3F29F00C94530B51110C949E0B0C94D7
S1131510590B0E947B0B68F39923B1F3552391F384
S1131520951B550BBB27AA2762177307840738F04E
S11315309F5F5F4F220F331F441FAA1FA9F335D0AB
S11315400E2E3AF0E0E832D091505040E695001C5F
S1131550CAF72BD0FE2F29D0660F771F881FBB1F19
S1131560261737074807AB07B0E809F0BB0B802DF7
S1131570BF01FF2793585F4F3AF09E3F510578F023
S11315800C94530B0C949E0B5F3FE4F3983ED4F3FE
S1131590869577956795B795F7959F5FC9F7880FF7
S11315A0911D9695879597F90895E1E0660F771F49
S11315B0881FBB1F621773078407BA0720F0621BDA
S11315C0730B840BBA0BEE1F88F7E09508950E9405
S11315D0830B88F09F5798F0B92F9927B751B0F033
S11315E0E1F0660F771F881F991F1AF0BA95C9F7A3
S11315F014C0B13091F00E949D0BB1E008950C9499
S11316009D0B672F782F8827B85F39F0B93FCCF34B
S1131610869577956795B395D9F73EF4909580951F
S1131620709561957F4F8F4F9F4F0895E89409C03F
S113163097FB3EF490958095709561957F4F8F4F01
S11316409F4F9923A9F0F92F96E9BB279395F69517
S1131650879577956795B795F111F8CFFAF4BB0F95
S113166011F460FF1BC06F5F7F4F8F4F9F4F16C0F9
S1131670882311F096E911C0772321F09EE8872F83
S1131680762F05C0662371F096E8862F70E060E03F
S11316902AF09A95660F771F881FDAF7880F9695B8
S11316A0879597F9089597F99F6780E870E060E05F
S11316B008959FEF80EC089500240A9416161706E7
S11316C018060906089500240A941216130614062F
S11316D005060895092E0394000C11F4882352F092
S11316E0BB0F40F4BF2B11F460FF04C06F5F7F4F4A
S11316F08F4F9F4F089557FD9058440F551F59F031
S11317005F3F71F04795880F97FB991F61F09F3FEA
S113171079F087950895121613061406551FF2CF13
S11317204695F1DF08C0161617061806991FF1CF63
S113173086957105610508940895E894BB2766278A
S11317407727CB0197F908950E94B70B0C946A0B85
S11317500E945C0B38F00E94630B20F0952311F07B
S11317600C94530B0C94590B11240C949E0B0E9453
S11317707B0B70F3959FC1F3950F50E0551F629F4B
S1131780F001729FBB27F00DB11D639FAA27F00DD6
S1131790B11DAA1F649F6627B00DA11D661F829FFD
S11317A02227B00DA11D621F739FB00DA11D621FE2
S11317B0839FA00D611D221F749F3327A00D611DFF
S11317C0231F849F600D211D822F762F6A2F1124E1
S11317D09F5750409AF0F1F088234AF0EE0FFF1F14
S11317E0BB1F661F771F881F91505040A9F79E3F6B
S11317F0510580F00C94530B0C949E0B5F3FE4F363
S1131800983ED4F3869577956795B795F795E795C0
S11318109F5FC1F7FE2B880F911D9695879597F9C9
S11318200895991B79E004C0991F961708F0961B38
S1131830881F7A95C9F78095089597FB072E16F4AB
S1131840009407D077FD09D00E94530C07FC05D003
S11318503EF4909581959F4F0895709561957F4FC3
S11318600895A1E21A2EAA1BBB1BFD010DC0AA1FDD
S1131870BB1FEE1FFF1FA217B307E407F50720F0F5
S1131880A21BB30BE40BF50B661F771F881F991F70
S11318901A9469F760957095809590959B01AC01B9
S11318A0BD01CF010895AA1BBB1B51E107C0AA1FAC
S11318B0BB1FA617B70710F0A61BB70B881F991FED
S11318C05A95A9F780959095BC01CD010895662796
S11318D077270C94BD0EFC0188279927E894219161
S11318E02032E9F3293010F02E30C8F32B3241F0C6
S11318F02D3239F4689404C00E94B20C820F911DF9
S1131900219120532A30C0F31EF4909581959F4F66
S11319100895FB01DC0101900D920020E1F7089588
S1131920FC01A081B181AD01109681F03D91FB01D4
S1131930019003160110E1F7C9F7002011F4D0015A
S113194002C01E921196FC01A083B183CA010895BE
S1131950DC016C9161566A3108F0605E6F5B6D93D7
S1131960C1F708957AE0979F902D879F802D910D60
S113197011240895AEE0B0E0E0ECFCE00C942111F9
S11319800D891E8986E08C831A8309838FEF9FE774
S11319909E838D83AE01475E5F4F6F89788DCE0144
S11319A001960E94DC0CEF81F885E00FF11F108294
S11319B02E96E4E00C943D11ABE0B0E0E2EEFCE0E6
S11319C00C9413116C017B018A01FC0117821682AD
S11319D0838181FFCCC1CE0101963C01F601938144
S11319E0F70193FD859193FF81917F01882309F489
S11319F0BAC1853239F493FD859193FF81917F01BA
S1131A00853229F4B60190E00E944210E7CF912C70
S1131A10212C312CFFE1F315D8F08B3279F038F416
S1131A20803279F08332A1F4232D20611DC08D32E0
S1131A3061F0803369F4232D216016C0832D826008
S1131A40382EE32DE4603E2E2AC0F32DF8601DC02D
S1131A5037FC2DC020ED280F2A3040F08E32B9F427
S1131A6036FC81C1232D2064322E19C036FE06C0F7
S1131A708AE0989E200D1124922E11C0EAE02E9E39
S1131A80200D1124222EF32DF0623F2E08C08C3637
S1131A9021F4832D8068382E02C0883641F4F70182
S1131AA093FD859193FF81917F018111B3CF982F8D
S1131AB09F7D9554933028F40C5F1F4F9FE39983C7
S1131AC00DC0833631F0833771F0833509F059C086
S1131AD021C0F801808189830E5F1F4F882483947D
S1131AE0912C530113C02801F2E04F0E511CF80150
S1131AF0A080B18036FE03C0692D70E002C06FEF94
S1131B007FEFC5010E9437104C018201F32DFF774E
S1131B103F2E16C0280122E0420E511CF801A0807D
S1131B20B18036FE03C0692D70E002C06FEF7FEF15
S1131B30C5010E942C104C01F32DF0683F2E820148
S1131B4033FC1BC0822D90E088169906B0F4B601D0
S1131B5080E290E00E9442102A94F4CFF50137FC11
S1131B60859137FE81915F01B60190E00E94421099
S1131B7021102A9421E0821A91088114910471F7AA
S1131B80E8C0843611F0893641F5F80137FE07C004
S1131B9060817181828193810C5F1F4F08C06081D5
S1131BA07181072E000C880B990B0E5F1F4FF32DCC
S1131BB0FF763F2E97FF09C09095809570956195AB
S1131BC07F4F8F4F9F4FF0683F2E2AE030E0A301F4
S1131BD00E947E10882E861845C0853731F4232D47
S1131BE02F7EB22E2AE030E025C0932D997FB92EA6
S1131BF08F36C1F018F4883579F0B5C0803719F004
S1131C00883721F0B0C0E92FE061BE2EB4FE0DC0CC
S1131C10FB2DF460BF2E09C034FE0AC0292F2660B4
S1131C20B22E06C028E030E005C020E130E002C05A
S1131C3020E132E0F801B7FE07C060817181828142
S1131C4093810C5F1F4F06C06081718180E090E03A
S1131C500E5F1F4FA3010E947E10882E8618FB2D55
S1131C60FF773F2E36FE0DC0232D2E7FA22E891422
S1131C7058F434FE0BC032FC09C0832D8E7EA82E8E
S1131C8005C0B82CA32C03C0B82C01C0B92CA4FEE9
S1131C900FC0FE01E80DF11D8081803321F49A2DDF
S1131CA0997EA92E09C0A2FE06C0B394B39404C0C1
S1131CB08A2D867809F0B394A3FC11C0A0FE06C057
S1131CC0B21488F4280C922C9B180EC0B21460F441
S1131CD0B60180E290E00E944210B394F7CFB214B0
S1131CE018F42B1802C0982C212CA4FE10C0B601A5
S1131CF080E390E00E944210A2FE17C0A1FC03C042
S1131D0088E790E002C088E590E0B6010CC08A2D17
S1131D10867859F0A1FE02C08BE201C080E2A7FCE4
S1131D208DE2B60190E00E944210891438F4B601A5
S1131D3080E390E00E9442109A94F7CF8A94F301D2
S1131D40E80DF11D8081B60190E00E9442108110DF
S1131D50F5CF222009F442CEB60180E290E00E9441
S1131D6042102A94F6CFF6018681978102C08FEF44
S1131D709FEF2B96E2E10C942F11A0E0B0E0E3EC8E
S1131D80FEE00C941911EC016B016115710519F059
S1131D90FB01918380837E01FFEFEF1AFF0A088124
S1131DA0802F90E00E940B10892B11F0E701F3CFF4
S1131DB00D3239F47E0182E0E80EF11C098111E054
S1131DC008C00B3229F47E0192E0E90EF11C09816E
S1131DD010E0E701219743E050E060E770E0CE01B6
S1131DE00E941410892BC1F4239645E050E06BE661
S1131DF070E0CE010E941410892B09F42596C114B9
S1131E00D10419F0F601D183C0831111F6C060E04A
S1131E1070E080E89FE7FAC043E050E068E670E0D5
S1131E20CE010E941410892B59F4C114D10409F471
S1131E30E9C0F2E0EF0EF11CF601F182E082E2C0AB
S1131E4020E030E0A901C0E0D0E0F70180EDA82E49
S1131E50A00E89E08A1530F1912F9260B92E812F5E
S1131E60887012FF04C0811124C0219622C0811100
S1131E702197A5E0B0E00E940811DC01CB01880F96
S1131E80991FAA1FBB1F9C01AD012A0D311D411DC5
S1131E90511D283989E93807480789E1580748F06E
S1131EA0166006C09EEFA9120AC013FD40C0186058
S1131EB0B12E8FEFE81AF80A00811B2DC6CF802FB0
S1131EC08F7D8534A1F580818D3211F4106106C0B7
S1131ED08B3221F0319661E070E004C0818132964A
S1131EE062E070E080538A3018F0E61BF70B1FC0E5
S1131EF060E070E060389CE079075CF4DB01AA0FD5
S1131F00BB1FAA0FBB1F6A0F7B1F660F771F680FCB
S1131F10711D3196DF0111978C9180538A3050F3F3
S1131F2014FF03C0719561957109C60FD71F11FF86
S1131F3008C0C114D10429F0CF010197F60191839F
S1131F408083CA01B9010E94160B212F237023300C
S1131F5019F04B015C0106C04B015C01B7FAB09467
S1131F60B7F8B09420E030E0A901C501B4010E94A3
S1131F70DC10882309F43EC0D7FF06C0D195C19573
S1131F80D10907E810E002C00FE910E06801F8E1A8
S1131F90CF1AD10890E2E92EF12CCE15DF0574F0AA
S1131FA0F8012591359145915491C501B4010E94E0
S1131FB0A40B4B015C01CE19DF09EFCF04501109CA
S1131FC0F594E7940C151D0541F78A2D880F8B2D88
S1131FD0881F8F3F49F020E030E0A901C501B4011A
S1131FE00E94DC10811106C082E290E09093BE034F
S1131FF08093BD03C501B40109C060E070E080E8CE
S11320009FEF04C060E070E080EC9FE7CDB7DEB7DF
S1132010ECE00C94351191110C940511803219F0F7
S113202089508550C8F70895FB01DC0141505040A8
S113203088F08D9181341CF08B350CF4805E6591B1
S113204061341CF06B350CF4605E861B611171F316
S1132050990B0895881BFCCFFC01059061507040DA
S11320600110D8F7809590958E0F9F1F0895FC015D
S11320706150704001900110D8F7809590958E0FB3
S11320809F1F08950F931F93CF93DF93FB01238129
S113209021FD03C08FEF9FEF2CC022FF16C04681A5
S11320A05781248135814217530744F4A081B181BB
S11320B09D012F5F3F4F318320838C93268137818D
S11320C02F5F3F4F3783268314C08B01EC01FB0144
S11320D00084F185E02D0995892BE1F6D801169647
S11320E08D919C911797019617969C938E931697B2
S11320F0CE01DF91CF911F910F910895FA01AA2784
S1132100283051F1203181F1E8946F936E7F6E5F36
S11321107F4F8F4F9F4FAF4FB1E03ED0B4E03CD0E4
S1132120670F781F891F9A1FA11D680F791F8A1FC7
S1132130911DA11D6A0F711D811D911DA11D20D02E
S113214009F468943F912AE0269F11243019305DE8
S11321503193DEF6CF010895462F4770405D4193D9
S1132160B3E00FD0C9F7F6CF462F4F70405D4A3326
S113217018F0495D31FD4052419302D0A9F7EACFEE
S1132180B4E0A6959795879577956795BA95C9F71D
S113219000976105710508959B01AC010A2E069410
S11321A05795479537952795BA95C9F7620F731FC9
S11321B0841F951FA01D08950E94E11008F481E07A
S11321C00895990F0008550FAA0BE0E8FEEF1616C4
S11321D01706E807F907C0F012161306E407F50717
S11321E098F0621B730B840B950B39F40A2661F08B
S11321F0232B242B252B21F408950A2609F4A1402E
S1132200A6958FEF811D811D08959927882708952C
S11322100E944A11A59F900DB49F900DA49F800D1C
S1132220911D112408952F923F924F925F926F92C5
S11322307F928F929F92AF92BF92CF92DF92EF9252
S1132240FF920F931F93CF93DF93CDB7DEB7CA1BD3
S1132250DB0B0FB6F894DEBF0FBECDBF09942A88FE
S1132260398848885F846E847D848C849B84AA84A6
S1132270B984C884DF80EE80FD800C811B81AA8133
S1132280B981CE0FD11D0FB6F894DEBF0FBECDBFFE
S1132290ED010895A29FB001B39FC001A39F700DEB
S11322A0811D1124911DB29F700D811D1124911D5A
S10922B00895F894FFCF2D
S11322B601000000D00700000000000005D05050C7
S11322C62C50412C4141484848784C4C4C005349C9
S11322D64E414953205649544149530062706D009A
S11322E62553704F320043006D6D486700504152CC
S11322F6414D4554524F53002A20526573702F6D39
S1132306696E002A20254F32002A20766F6C756D7F
S1132316650025753A25753A257500494E462E20E1
S113232650414349454E5445004475726163616F9B
S11323363A2000206D00204B6700204B672F6D323A
S10F23460078004552524F21002C00008A
S9030000FC
